{
  "contractName": "Benefitplan",
  "abi": [
    {
      "inputs": [],
      "payable": false,
      "stateMutability": "nonpayable",
      "type": "constructor"
    },
    {
      "anonymous": false,
      "inputs": [
        {
          "indexed": false,
          "internalType": "string",
          "name": "benfitPlanId",
          "type": "string"
        },
        {
          "indexed": false,
          "internalType": "address[]",
          "name": "memberAdresses",
          "type": "address[]"
        }
      ],
      "name": "benefitPlanUpdated",
      "type": "event"
    },
    {
      "constant": false,
      "inputs": [
        {
          "internalType": "string",
          "name": "_id",
          "type": "string"
        },
        {
          "internalType": "string",
          "name": "_ipfsHash",
          "type": "string"
        }
      ],
      "name": "setBenefitPlan",
      "outputs": [],
      "payable": false,
      "stateMutability": "nonpayable",
      "type": "function"
    },
    {
      "constant": false,
      "inputs": [
        {
          "internalType": "address",
          "name": "_memberId",
          "type": "address"
        },
        {
          "internalType": "string",
          "name": "_benefitPlanId",
          "type": "string"
        }
      ],
      "name": "assignMemberToBenefitPlan",
      "outputs": [],
      "payable": false,
      "stateMutability": "nonpayable",
      "type": "function"
    },
    {
      "constant": true,
      "inputs": [
        {
          "internalType": "string",
          "name": "_benefitPlanId",
          "type": "string"
        }
      ],
      "name": "getAllMembersForBenfitPlan",
      "outputs": [
        {
          "internalType": "address[]",
          "name": "",
          "type": "address[]"
        }
      ],
      "payable": false,
      "stateMutability": "view",
      "type": "function"
    },
    {
      "constant": true,
      "inputs": [
        {
          "internalType": "string",
          "name": "_id",
          "type": "string"
        }
      ],
      "name": "getBenefitPlan",
      "outputs": [
        {
          "internalType": "string",
          "name": "",
          "type": "string"
        }
      ],
      "payable": false,
      "stateMutability": "view",
      "type": "function"
    },
    {
      "constant": true,
      "inputs": [],
      "name": "getBenefitPlanForMember",
      "outputs": [
        {
          "internalType": "string",
          "name": "",
          "type": "string"
        }
      ],
      "payable": false,
      "stateMutability": "view",
      "type": "function"
    }
  ],
  "bytecode": "0x608060405234801561001057600080fd5b50336000806101000a81548173ffffffffffffffffffffffffffffffffffffffff021916908373ffffffffffffffffffffffffffffffffffffffff160217905550611061806100606000396000f3fe608060405234801561001057600080fd5b50600436106100575760003560e01c8063047589051461005c5780633332872c14610190578063799a9333146102a05780639613320c146103f2578063fa099b6714610475575b600080fd5b6101156004803603602081101561007257600080fd5b810190808035906020019064010000000081111561008f57600080fd5b8201836020820111156100a157600080fd5b803590602001918460018302840111640100000000831117156100c357600080fd5b91908080601f016020809104026020016040519081016040528093929190818152602001838380828437600081840152601f19601f820116905080830192505050505050509192919290505050610550565b6040518080602001828103825283818151815260200191508051906020019080838360005b8381101561015557808201518184015260208101905061013a565b50505050905090810190601f1680156101825780820380516001836020036101000a031916815260200191505b509250505060405180910390f35b610249600480360360208110156101a657600080fd5b81019080803590602001906401000000008111156101c357600080fd5b8201836020820111156101d557600080fd5b803590602001918460018302840111640100000000831117156101f757600080fd5b91908080601f016020809104026020016040519081016040528093929190818152602001838380828437600081840152601f19601f820116905080830192505050505050509192919290505050610720565b6040518080602001828103825283818151815260200191508051906020019060200280838360005b8381101561028c578082015181840152602081019050610271565b505050509050019250505060405180910390f35b6103f0600480360360408110156102b657600080fd5b81019080803590602001906401000000008111156102d357600080fd5b8201836020820111156102e557600080fd5b8035906020019184600183028401116401000000008311171561030757600080fd5b91908080601f016020809104026020016040519081016040528093929190818152602001838380828437600081840152601f19601f8201169050808301925050505050505091929192908035906020019064010000000081111561036a57600080fd5b82018360208201111561037c57600080fd5b8035906020019184600183028401116401000000008311171561039e57600080fd5b91908080601f016020809104026020016040519081016040528093929190818152602001838380828437600081840152601f19601f8201169050808301925050505050505091929192905050506108d9565b005b6103fa610bbb565b6040518080602001828103825283818151815260200191508051906020019080838360005b8381101561043a57808201518184015260208101905061041f565b50505050905090810190601f1680156104675780820380516001836020036101000a031916815260200191505b509250505060405180910390f35b61054e6004803603604081101561048b57600080fd5b81019080803573ffffffffffffffffffffffffffffffffffffffff169060200190929190803590602001906401000000008111156104c857600080fd5b8201836020820111156104da57600080fd5b803590602001918460018302840111640100000000831117156104fc57600080fd5b91908080601f016020809104026020016040519081016040528093929190818152602001838380828437600081840152601f19601f820116905080830192505050505050509192919290505050610d0d565b005b60603373ffffffffffffffffffffffffffffffffffffffff166000809054906101000a900473ffffffffffffffffffffffffffffffffffffffff1673ffffffffffffffffffffffffffffffffffffffff1614610614576040517f08c379a000000000000000000000000000000000000000000000000000000000815260040180806020018281038252600b8152602001807f4e6f7420416c6c6f77656400000000000000000000000000000000000000000081525060200191505060405180910390fd5b6001826040518082805190602001908083835b6020831061064a5780518252602082019150602081019050602083039250610627565b6001836020036101000a03801982511681845116808217855250505050505090500191505090815260200160405180910390206000018054600181600116156101000203166002900480601f0160208091040260200160405190810160405280929190818152602001828054600181600116156101000203166002900480156107145780601f106106e957610100808354040283529160200191610714565b820191906000526020600020905b8154815290600101906020018083116106f757829003601f168201915b50505050509050919050565b60603373ffffffffffffffffffffffffffffffffffffffff166000809054906101000a900473ffffffffffffffffffffffffffffffffffffffff1673ffffffffffffffffffffffffffffffffffffffff16146107e4576040517f08c379a000000000000000000000000000000000000000000000000000000000815260040180806020018281038252600b8152602001807f4e6f7420416c6c6f77656400000000000000000000000000000000000000000081525060200191505060405180910390fd5b6003826040518082805190602001908083835b6020831061081a57805182526020820191506020810190506020830392506107f7565b6001836020036101000a03801982511681845116808217855250505050505090500191505090815260200160405180910390208054806020026020016040519081016040528092919081815260200182805480156108cd57602002820191906000526020600020905b8160009054906101000a900473ffffffffffffffffffffffffffffffffffffffff1673ffffffffffffffffffffffffffffffffffffffff1681526020019060010190808311610883575b50505050509050919050565b3373ffffffffffffffffffffffffffffffffffffffff166000809054906101000a900473ffffffffffffffffffffffffffffffffffffffff1673ffffffffffffffffffffffffffffffffffffffff161461099b576040517f08c379a000000000000000000000000000000000000000000000000000000000815260040180806020018281038252600b8152602001807f4e6f7420416c6c6f77656400000000000000000000000000000000000000000081525060200191505060405180910390fd5b6109a3610ef4565b818160000181905250806001846040518082805190602001908083835b602083106109e357805182526020820191506020810190506020830392506109c0565b6001836020036101000a03801982511681845116808217855250505050505090500191505090815260200160405180910390206000820151816000019080519060200190610a32929190610f07565b509050507f3baf810bab05b7f0241b303c33ab55f43835686da75be3f5a18d5ad1cf5bbc7a836003856040518082805190602001908083835b60208310610a8e5780518252602082019150602081019050602083039250610a6b565b6001836020036101000a0380198251168184511680821785525050505050509050019150509081526020016040518091039020604051808060200180602001838103835285818151815260200191508051906020019080838360005b83811015610b05578082015181840152602081019050610aea565b50505050905090810190601f168015610b325780820380516001836020036101000a031916815260200191505b508381038252848181548152602001915080548015610ba657602002820191906000526020600020905b8160009054906101000a900473ffffffffffffffffffffffffffffffffffffffff1673ffffffffffffffffffffffffffffffffffffffff1681526020019060010190808311610b5c575b505094505050505060405180910390a1505050565b60606001600260003373ffffffffffffffffffffffffffffffffffffffff1673ffffffffffffffffffffffffffffffffffffffff1681526020019081526020016000206040518082805460018160011615610100020316600290048015610c595780601f10610c37576101008083540402835291820191610c59565b820191906000526020600020905b815481529060010190602001808311610c45575b505091505090815260200160405180910390206000018054600181600116156101000203166002900480601f016020809104026020016040519081016040528092919081815260200182805460018160011615610100020316600290048015610d035780601f10610cd857610100808354040283529160200191610d03565b820191906000526020600020905b815481529060010190602001808311610ce657829003601f168201915b5050505050905090565b3373ffffffffffffffffffffffffffffffffffffffff166000809054906101000a900473ffffffffffffffffffffffffffffffffffffffff1673ffffffffffffffffffffffffffffffffffffffff1614610dcf576040517f08c379a000000000000000000000000000000000000000000000000000000000815260040180806020018281038252600b8152602001807f4e6f7420416c6c6f77656400000000000000000000000000000000000000000081525060200191505060405180910390fd5b80600260008473ffffffffffffffffffffffffffffffffffffffff1673ffffffffffffffffffffffffffffffffffffffff1681526020019081526020016000209080519060200190610e22929190610f87565b506003816040518082805190602001908083835b60208310610e595780518252602082019150602081019050602083039250610e36565b6001836020036101000a03801982511681845116808217855250505050505090500191505090815260200160405180910390208290806001815401808255809150509060018203906000526020600020016000909192909190916101000a81548173ffffffffffffffffffffffffffffffffffffffff021916908373ffffffffffffffffffffffffffffffffffffffff160217905550505050565b6040518060200160405280606081525090565b828054600181600116156101000203166002900490600052602060002090601f016020900481019282601f10610f4857805160ff1916838001178555610f76565b82800160010185558215610f76579182015b82811115610f75578251825591602001919060010190610f5a565b5b509050610f839190611007565b5090565b828054600181600116156101000203166002900490600052602060002090601f016020900481019282601f10610fc857805160ff1916838001178555610ff6565b82800160010185558215610ff6579182015b82811115610ff5578251825591602001919060010190610fda565b5b5090506110039190611007565b5090565b61102991905b8082111561102557600081600090555060010161100d565b5090565b9056fea265627a7a72315820d87b211ec50c3c0b17d69f394477e2b3f98424fc9c5e9f8ac1e0e22099db10f764736f6c63430005100032",
  "source": "pragma solidity >=0.4.22 <0.6.0;\n\ncontract Benefitplan{\n    \n    //the provider address\n    address private provider ;\n\n    //structure for benefit plan\n    struct benefitPlan{\n        //file hash of the benefitPlan\n        string ipfsHash;\n    }\n\n   //String is the benefitPlan id; mapping of benefit plan id to benefit plan\n    mapping(string => benefitPlan) private benefitPlanMap;\n     \n    //map of member id to benefit plan id\n    mapping(address => string) private memberBenefitMap;\n     \n    //map of member id to benefit plan id\n    mapping(string => address[]) membersForBenifitPlanMap;\n     \n    constructor() public {\n        provider=msg.sender;\n    }\n     /***  Methods **********************************/\n    /// @dev Add benefitPlan to the benefitPlanMap map\n    /// @param _id benefit plan id\n    /// @param _ipfsHash The hash of json stored in ipfs\n    function setBenefitPlan(string memory _id, string memory _ipfsHash) public onlyProvider(){\n             benefitPlan memory c;\n             c.ipfsHash=_ipfsHash;\n            benefitPlanMap[_id]=c;\n            emit benefitPlanUpdated(_id, membersForBenifitPlanMap[_id]);\n    }\n    \n    //Events to be emitted after a benefit plan is added or changed\n    event benefitPlanUpdated(string benfitPlanId, address[] memberAdresses);\n    \n    //assign a member to a benefit plan\n    function assignMemberToBenefitPlan(address _memberId, string memory _benefitPlanId) public onlyProvider() {\n        memberBenefitMap[_memberId]=_benefitPlanId;\n        membersForBenifitPlanMap[_benefitPlanId].push(_memberId);\n    }\n    \n    //get a list of members for a benefit plan\n    function getAllMembersForBenfitPlan(string memory _benefitPlanId) public onlyProvider() view returns (address[] memory) {\n        return(membersForBenifitPlanMap[_benefitPlanId]);\n    }\n    \n    //get a benefit plan for a member\n    function getBenefitPlan(string memory _id) public  onlyProvider() view returns (string memory){\n        return(benefitPlanMap[_id].ipfsHash);\n    }\n    \n    //get benfit plan for member\n    function getBenefitPlanForMember() public view returns (string memory){\n        return(benefitPlanMap[memberBenefitMap[msg.sender]].ipfsHash);\n    }\n    \n    //modifier to check if the calling entity is the provider\n    modifier onlyProvider() {\n        require(provider==msg.sender,\"Not Allowed\");\n        _;\n    }\n\n}\n",
  "sourcePath": "/home/lakshit/Documents/Code/hex/truffleproject/contracts/Benefitplan.sol",
  "compiler": {
    "name": "solc",
    "version": "0.5.16+commit.9c3226ce.Emscripten.clang"
  },
  "schemaVersion": "3.0.23",
  "updatedAt": "2020-03-04T14:24:49.942Z",
  "networkType": "ethereum",
  "devdoc": {
    "methods": {
      "setBenefitPlan(string,string)": {
        "details": "Add benefitPlan to the benefitPlanMap map",
        "params": {
          "_id": "benefit plan id",
          "_ipfsHash": "The hash of json stored in ipfs"
        }
      }
    }
  },
  "userdoc": {
    "methods": {}
  }
}